:100000000C942A000C9486010C9447000C94470031
:100010000C9447000C9447000C9447000C94470044
:100020000C9447000C9447000C9447000C94470034
:100030000C9447000C9447000C9447000C94470024
:100040000C9447000C9447000C9447000C94470014
:100050000C94470011241FBECFE5D8E0DEBFCDBF12
:1000600010E0A0E6B0E0E8EBFBE002C005900D92E6
:10007000AA39B107D9F710E0AAE9B0E001C01D9292
:10008000AE39B107E1F70E94AA020C94DA050C948C
:10009000000080E487B987E886B90895FB0197B12D
:1000A000892B87B9369A3699FECF24B130E0318357
:1000B000208345B1942F80E0822B932B9183808302
:1000C0000895813049F0813028F0823039F0833052
:1000D00041F406C06BBB089568BB089565BB0895E5
:1000E00062BB0895982F9770869586958695813086
:1000F00031F1813038F0823009F43EC0833009F0AC
:1001000074C057C0662371F44BB321E030E0B901ED
:1001100002C0660F771F9A95E2F7CB018095842382
:100120008BBB08954BB321E030E0B90102C0660FEC
:10013000771F9A95E2F7CB01842B8BBB089566233A
:1001400071F448B321E030E0B90102C0660F771FB7
:100150009A95E2F7CB018095842388BB089548B334
:1001600021E030E0B90102C0660F771F9A95E2F7EF
:10017000CB01842B88BB0895662371F445B321E03D
:1001800030E0B90102C0660F771F9A95E2F7CB0104
:100190008095842385BB089545B321E030E0B90103
:1001A00002C0660F771F9A95E2F7CB01842B85BBBF
:1001B0000895662371F442B321E030E0B90102C032
:1001C000660F771F9A95E2F7CB018095842382BB57
:1001D000089542B321E030E0B90102C0660F771FF5
:1001E0009A95E2F7CB01842B82BB0895813049F0C8
:1001F000813028F0823039F0833049F406C089B369
:10020000089586B3089583B3089580B3089580E078
:100210000895982F97708695869586958130E1F0A0
:10022000813030F0823061F1833009F051C03CC040
:1002300029B341E050E0092E02C0440F551F0A9433
:10024000E2F730E024233523A90102C055954795F4
:100250009A95E2F7CA01089526B341E050E0092ECD
:1002600002C0440F551F0A94E2F730E024233523DF
:10027000A90102C0559547959A95E2F7CA010895DC
:1002800023B341E050E0092E02C0440F551F0A94E9
:10029000E2F730E024233523A90102C055954795A4
:1002A0009A95E2F7CA01089520B341E050E0092E83
:1002B00002C0440F551F0A94E2F730E0242335238F
:1002C000A90102C0559547959A95E2F7CA0108958C
:1002D00080E0089580EF8ABB8EE087BB8CEF84BB03
:1002E0008AEF81BB1BBA18BA15BA12BA089585B73E
:1002F0008A6085BF84B7806484BF8BB780648BBFFE
:10030000089590939C0080939B0008951F920F92F4
:100310000FB60F9211242F933F934F935F936F93D8
:100320007F938F939F93AF93BF93EF93FF93E0914E
:100330009B00F0919C000995FF91EF91BF91AF91C7
:100340009F918F917F916F915F914F913F912F91ED
:100350000F900FBE0F901F90189580919A008930D2
:1003600079F48CE161E00E94720083ED90E30197E3
:10037000F1F700C000008CE160E00E947200089577
:100380008F5F80939A00089580919A00882379F472
:100390008CE161E00E94720083ED90E30197F1F738
:1003A00000C000008CE160E00E947200089581505E
:1003B00080939A00089578948DEA91E00E948101DB
:1003C000F8948DE00E940901813039F40E94C40143
:1003D0008DE00E9409018130D9F380919A000E943A
:1003E00091040895FF920F931F93DF93CF9300D052
:1003F00000D000D0CDB7DEB70E94490080E0BE013A
:100400006F5F7F4F0E944E00498150E024EF31E042
:10041000429FC001439F900D529F900D11246FEF9A
:1004200070E00E948205F62E6C33A0F08EE161E050
:100430000E9472008FE160E00E9472008DE160E036
:100440000E9472008BE160E00E94720010929D0099
:1004500080E01AC080E060E00E94450480E690E001
:100460000E94CD038E010E5F1F4F8F2D90E0B801CB
:100470004AE050E00E94A905C8010E94CD038EE128
:1004800060E00E94720081E026960FB6F894DEBF0D
:100490000FBECDBFCF91DF911F910F91FF900895B7
:1004A000DF93CF930F92CDB7DEB70E94490081E072
:1004B000BE016F5F7F4F0E944E0089810E948704BA
:1004C0008CE160E00E9472000F90CF91DF9108955F
:1004D000DF93CF930F92CDB7DEB7CE0101960E9486
:1004E0007C058981813069F480939D008BE161E016
:1004F0000E9472008DE160E00E94720080919D0078
:1005000020C0823069F480939D008DE161E00E94FB
:1005100072008BE160E00E94720080919D0011C02A
:10052000833069F480939D008DE160E00E94720049
:100530008BE160E00E94720080919D0002C080917A
:100540009D000F90CF91DF9108958FEF81BB8FE0D9
:1005500081BD08958F929F92AF92BF92CF92DF920A
:10056000EF92FF920F931F93CF93DF930E946A0144
:100570000E9467050E9477010E9449000E945F0463
:100580000E9484040E94710581E00E945D0581E063
:100590000E9462050E94A502C7E6D0E004E810E0D0
:1005A0000F2EF2E9EF2EF0E0FF2EF02D0F2EFCE7DC
:1005B000CF2EF0E0DF2EF02D0F2EF4E78F2EF0E09F
:1005C0009F2EF02D0F2EFCE6AF2EF0E0BF2EF02D6B
:1005D00080E061E00E944504CE010E94CD030E94AC
:1005E00055040E94F2018130A1F50E946802813019
:1005F00041F480E061E00E944504C5010E94CD0302
:100600001BC0823041F480E061E00E944504C401D7
:100610000E94CD0311C0833041F480E061E00E946C
:100620004504C6010E94CD0307C080E061E00E943E
:100630004504C6010E94CD0387EA91E60197F1F7D0
:1006400000C000000E9455040E94DB010E9450027D
:1006500016C00E94550480E060E00E944504C80175
:100660000E94CD0382E061E00E944504C7010E9420
:10067000CD0387EA91E60197F1F700C00000A89545
:10068000A7CF1F93CF93DF93182F89E061E00E94DB
:1006900072008AE060E00E947200612F661F662788
:1006A000661F87E00E947200C12FD0E0BE01607417
:1006B0007070062E672F000C661F770B000C661FEC
:1006C000771F86E00E947200BE016072707075959F
:1006D0006795759567957595679575956795759502
:1006E000679585E00E947200BE016071707075951B
:1006F000679575956795759567957595679584E088
:100700000E9472008BE061E00E9472008DE08A9589
:10071000F1F700008BE060E00E94720087EC90E04F
:100720000197F1F700C00000BE0168707070759508
:100730006795759567957595679587E00E94720036
:10074000BE0164707070759567957595679586E0C4
:100750000E947200C270D070BE017595679585E0E9
:100760000E947200612F617084E00E9472008BE031
:1007700061E00E9472009DE09A95F1F700008BE025
:1007800060E00E94720087EC90E00197F1F700C0F2
:100790000000DF91CF911F910895CF93DF93EC017B
:1007A0008881882331F021960E9441038991882312
:1007B000D9F7DF91CF9108951F93CF93DF93182F2F
:1007C00089E060E00E9472008AE060E00E947200AE
:1007D000612F661F6627661F87E00E947200C12F87
:1007E000D0E0BE0160747070062E672F000C661F8B
:1007F000770B000C661F771F86E00E947200BE0117
:100800006072707075956795759567957595679524
:10081000759567957595679585E00E947200C07122
:10082000D070BE01759567957595679575956795B7
:100830007595679584E00E9472008BE061E00E94EC
:1008400072008DE08A95F1F700008BE060E00E9475
:100850007200612F6295607F80E00E9461008BE0F2
:1008600061E00E9472009DE09A95F1F700008BE034
:1008700060E00E94720087EC90E00197F1F700C001
:100880000000DF91CF911F910895662331F48031EC
:1008900058F480580E94DC030895613029F48031B7
:1008A00018F480540E94DC03089581E00E94DC0368
:1008B0008FE99FE00197F1F700C0000008958FE2F3
:1008C00095E70197F1F700C0000082E30E94DC0386
:1008D00088E20E94DC038CE00E94DC0381E00E943D
:1008E000DC03AFE9BFE01197F1F700C0000086E03C
:1008F0000E94DC038FEF99E6A8E181509040A04070
:10090000E1F700C0000008958DE685BD08959FEFD2
:10091000899FC001112464E670E00E94820563BDD6
:100920000895843009F463C0853050F4813061F15A
:100930008130C8F08230C9F1833009F0BDC046C0B3
:10094000873009F487C0883038F4853009F460C0F6
:10095000863009F0B1C06DC0883009F48CC0893090
:1009600009F0AAC099C084E160E00E94720085E1AC
:1009700060E00E94720086E160E00E94720087E100
:1009800060E00E947200089584E161E00E947200BC
:1009900085E160E00E94720086E160E00E947200E2
:1009A00087E160E00E947200089584E160E00E94A7
:1009B000720085E161E00E94720086E160E00E94C1
:1009C000720087E160E00E947200089584E161E0B6
:1009D0000E94720085E161E00E94720086E160E0A1
:1009E0000E94720087E160E00E947200089584E135
:1009F00060E00E94720085E160E00E94720086E182
:100A000061E00E94720087E160E00E947200089538
:100A100084E161E00E94720085E160E00E94720062
:100A200086E161E00E94720087E160E00E9472004E
:100A3000089584E160E00E94720085E161E00E9417
:100A4000720086E161E00E94720087E160E00E942E
:100A50007200089584E161E00E94720085E161E026
:100A60000E94720086E161E00E94720087E160E00E
:100A70000E947200089584E160E00E94720085E1A6
:100A800060E00E94720086E160E00E94720087E1EF
:100A900061E00E947200089584E161E00E947200AA
:100AA00085E160E00E94720086E160E00E947200D1
:100AB00087E161E00E9472000895682F82E10E9440
:100AC00072000895682F83E10E947200089580E00B
:100AD0000E945D0580E00E94620580E00E94910412
:100AE000089510BC83E389B988E18AB986E880BD9E
:100AF00008955D998CB908955F9B03C02CB1FC01EA
:100B00002083089597FB092E07260AD077FD04D08D
:100B10000CD006D000201AF4709561957F4F08958F
:100B2000F6F7909581959F4F0895AA1BBB1B51E145
:100B300007C0AA1FBB1FA617B70710F0A61BB70B4D
:100B4000881F991F5A95A9F780959095BC01CD01F2
:100B50000895FB019F01E8944230C4F04532B4F49B
:100B60004A3029F497FB1EF4909581959F4F642F8E
:100B700077270E949505805D8A330CF0895D81930B
:100B8000CB010097A1F716F45DE251931082C901E1
:100B90000C94CA05DC01FC01672F71917723E1F702
:100BA000329704C07C916D9370836291AE17BF073A
:080BB000C8F30895F894FFCF8B
:100BB80054656D703D200073736164004D6F746FF0
:100BC800722046004D6F746F722042004D6F746F33
:100BD800722053005468652053797374656D2049F9
:0A0BE800730053746F7070656400B1
:00000001FF
